:020000040800F2
:1000000060070020CD010008C90400083904000879
:10001000C504000819030008DF0A000800000000FA
:100020000000000000000000000000008906000839
:100030001D03000800000000510500089D0700088E
:10004000E7010008E7010008E7010008E7010008F0
:10005000E7010008E7010008E7010008E7010008E0
:10006000E7010008E7010008E7010008E7010008D0
:10007000E7010008E7010008E7010008E7010008C0
:10008000E7010008E7010008E7010008E7010008B0
:10009000E7010008E7010008E7010008E7010008A0
:1000A000E7010008E7010008E7010008E701000890
:1000B000E7010008E7010008E7010008E701000880
:1000C000E7010008E7010008E7010008E701000870
:1000D000E701000801080008E7010008E70100083F
:1000E000E7010008E7010008E7010008E701000850
:1000F000E7010008E7010008E7010008E701000840
:10010000E7010008E7010008E7010008E70100082F
:10011000E7010008E7010008E7010008E70100081F
:10012000E7010008E7010008E7010008E70100080F
:1001300000F002F800F03AF80AA090E8000C8244BF
:100140008344AAF10107DA4501D100F02FF8AFF29C
:10015000090EBAE80F0013F0010F18BFFB1A43F0A5
:10016000010318472C0C00004C0C0000103A24BF6F
:1001700078C878C1FAD8520724BF30C830C144BF0C
:1001800004680C607047000000230024002500264E
:10019000103A28BF78C1FBD8520728BF30C148BFEA
:1001A0000B6070471FB51FBD10B510BD00F06EF895
:1001B0001146FFF7F7FF00F0F3FC00F0A0F803B4DE
:1001C000FFF7F2FF03BC00F08CFC000009488047F9
:1001D00009480047FEE7FEE7FEE7FEE7FEE7FEE729
:1001E000FEE7FEE7FEE7FEE704480549054A064B41
:1001F00070470000A10700083101000860010020DD
:1002000060070020600300206003002070470000AA
:100210000FB4044910B503AA029800F009F810BC05
:100220005DF814FB18000020704770477047704756
:10023000074B70B50D467B4400F011F80446284684
:1002400000F020F810B14FF0FF3070BD204670BDB7
:100250003F09000001694A1C02610878704700B537
:100260008FB0CDE901310021059105497944CDE9EF
:1002700003101146684600F02EF80FB000BD0000D4
:10028000E5FFFFFF007B00F080007047754600F03F
:100290003FF8AE4605006946534620F00700854604
:1002A00018B020B5FFF7A0FFBDE820404FF00006D2
:1002B0004FF000074FF000084FF0000B21F007014E
:1002C000AC46ACE8C009ACE8C009ACE8C009ACE891
:1002D000C0098D4670472DE9F04106460024D6E955
:1002E0000170F5688046304603E04146B847641C1B
:1002F0003046A8470028F8D12046BDE8F08110B567
:100300000446AFF300802046BDE81040FFF757BF1A
:1003100000487047FC00002000BFFEE770472DE951
:10032000F04102460025002600200023002400277B
:1003300091F803C00CF00F0591F803C00CF0100CFD
:10034000BCF1000F03D091F802C04CEA050591F80A
:1003500000C0BCF1000F31D0146800202BE04FF03A
:10036000010C0CFA00F3B1F800C00CEA03069E423F
:1003700020D183004FF00F0C0CFA03F7BC4305FAB1
:1003800003FC4CEA040491F803C0BCF1280F06D129
:100390004FF0010C0CFA00FCC2F814C00AE091F80E
:1003A00003C0BCF1480F05D14FF0010C0CFA00FC62
:1003B000C2F810C0401C0828D1D31460B1F800C0A6
:1003C000BCF1FF0F34DD546800202EE000F1080C72
:1003D0004FF0010808FA0CF3B1F800C00CEA03066C
:1003E0009E4221D183004FF00F0C0CFA03F7BC435F
:1003F00005FA03FC4CEA040491F803C0BCF1280F91
:1004000005D100F1080C08FA0CF8C2F8148091F834
:1004100003C0BCF1480F07D100F1080C4FF00108F0
:1004200008FA0CF8C2F81080401C0828CED354609B
:10043000BDE8F0810161704700BFFEE708B501210A
:10044000442000F097F81820ADF8000048208DF8FF
:10045000030069460648FFF762FF0120ADF800007F
:1004600028208DF8030069460248FFF758FF08BDB1
:10047000001801400008014008B50121482000F0A3
:1004800079F82020ADF8000010208DF8030003203B
:100490008DF8020069460948FFF741FF202107480F
:1004A000FFF7C8FF2020ADF8000069460448FFF7B9
:1004B00036FF20210248FFF7BDFF08BD000C0140B8
:1004C0000018014000BFFEE77047000070B5002132
:1004D00000230F22C47804B3154C246804F4E064AC
:1004E000C4F5E064210AC1F10403CA40447804FA67
:1004F00003F184781440214309010E4C0678A1557C
:10050000047804F01F050124AC4005786D11AD009E
:1005100005F1E025C5F8004109E0047804F01F0565
:100520000124AC40044D0678761145F8264070BD94
:100530000CED00E000E400E080E100E0024901434E
:10054000024A1160704700000000FA050CED00E05F
:100550007047000029B1064A12690243044B1A6130
:1005600004E0034A12698243014B1A61704700009C
:100570000010024029B1064A92690243044B9A6175
:1005800004E0034A92698243014B9A61704700007C
:100590000010024029B1064AD2680243044BDA60D7
:1005A00004E0034AD2688243014BDA6070470000DE
:1005B0000010024030B500210022002400232D4D00
:1005C0006D6805F00C0121B1042905D0082923D15B
:1005D00005E0294D056022E0274D05601FE0254D0F
:1005E0006D6805F47012234D6D6805F480340225A2
:1005F00005EB92421CB9214D554305600BE01D4DA2
:100600006D6805F400351DB11C4D5543056002E0D1
:10061000194D5543056002E0174D056000BF00BF4E
:10062000144D6D6805F0F0010909154D6B5C056806
:10063000DD4045600F4D6D6805F4E061090A104D1D
:100640006B5C4568DD4085600A4D6D6805F460515E
:10065000C90A0B4D6B5C4568DD40C560054D6D6892
:1006600005F44041890B074D6B5CC568B5FBF3F59C
:10067000056130BD0010024000127A0000093D0003
:100680001E0000202E000020704710B500F002F878
:1006900010BD00000CB500200190009033480068A8
:1006A00040F480303149086000BF3048006800F4F1
:1006B000003000900198401C0190009818B90198F2
:1006C000B0F5A06FF1D12948006800F4003010B1F6
:1006D0000120009001E0002000900098012843D103
:1006E0002348006840F0100021490860084600686F
:1006F00020F0030008600846006840F0020008602F
:100700001A484068194948600846406848600846E9
:10071000406840F4806048600846406820F47C10DF
:1007200048600846406840F4E810486008460068A1
:1007300040F08070086000BF0C48006800F0007056
:100740000028F9D00948406820F0030007494860B4
:100750000846406840F00200486000BF0348406817
:1007600000F00C000828F9D10CBD00000010024078
:1007700000200240042808D14FF0E021096941F02F
:1007800004014FF0E022116107E04FF0E021096918
:1007900021F004014FF0E022116170477047000022
:1007A00010B51348006840F0010011490860084680
:1007B0004068104908400E494860084600680E49E4
:1007C00008400B4908600846006820F48020086053
:1007D0000846406820F4FE0048604FF41F0088601F
:1007E000FFF753FF4FF000600449086010BD0000A0
:1007F000001002400000FFF8FFFFF6FE08ED00E0E9
:1008000010B540F225511D4800F0A5F810B31B4863
:1008100000F05CF9C4B21A48008800F40040C8B97E
:100820001748008800F4804060B10A2C03D00020F3
:100830001349088020E01248008840F40040104925
:10084000088019E00D2C06D10D48008840F4804046
:100850000B49088010E00A480088C0F30D000949E0
:100860000C5407480088401C054908800846008849
:10087000C72801DD0020088010BD000000380140BD
:100880001C0000203400002021B1828942F4005273
:10089000828104E082894DF6FF731A40828170479D
:1008A00010B504462048844209D101218803FFF78E
:1008B00071FE00214FF48040FFF76CFE32E01B48D0
:1008C000844209D101214804FFF744FE00214FF47E
:1008D0000030FFF73FFE25E01548844209D1012191
:1008E0008804FFF737FE00214FF48020FFF732FE27
:1008F00018E01048844209D10121C804FFF72AFEFC
:1009000000214FF40020FFF725FE0BE00A48844247
:1009100008D101210805FFF71DFE00214FF48010CA
:10092000FFF718FE10BD00000038014000440040F1
:1009300000480040004C00400050004002460020AB
:10094000B1F5007F00D100BF13880B400BB101202F
:1009500000E00020704770B5024600240023002507
:10096000002040F66A16B14200D100BFC1F3421523
:1009700001F01F03012606FA03F3012D02D1968927
:10098000334006E0022D02D1168A334001E0968AF8
:1009900033400C12012606FA04F41688344013B1D1
:1009A0000CB1012000E0002070BDF0B5034600242A
:1009B00000260025002040F66A17B94200D100BF8A
:1009C0001846C1F3421401F01F06012707FA06F585
:1009D000012C01D10C3004E0022C01D1103000E0D8
:1009E00014301AB107682F43076002E00768AF436D
:1009F0000760F0BD2DE9F04786B005460E4600249D
:100A0000A24600BFA1460027B08900B100BF2F4613
:100A10002C8A4CF6FF700440F08804432C82AC8989
:100A20004EF6F3100440B0883189084371890843B9
:100A30000443AC81AC8A4FF6FF400440B0890443C4
:100A4000AC8201A8FFF7B6FD1F48874202D1DDF84E
:100A500010A001E0DDF80CA0A88900F4004040B12E
:100A60000AEBCA0000EB0A1031684900B0FBF1F84C
:100A700007E00AEBCA0000EB0A1031688900B0FBFE
:100A8000F1F86420B8FBF0F004012009642101FBB7
:100A90001089A88900F4004040B1322000EBC90061
:100AA000B0FBF1F000F00700044308E0322000EB57
:100AB00009106421B0FBF1F000F00F0004432C8119
:100AC00006B0BDE8F0870000003801400146888884
:100AD000C0F308007047C1F308028280704700BF6E
:100AE000FEE700BF7047000010B56FF00400FFF78D
:100AF00041FE0A4800680A49B0FBF1F00949087054
:100B00000846007800EB4001C1EBC0104FF6FF71C2
:100B100001EAC0000449088010BD00000000002068
:100B200000127A0014000020160000200146114A2D
:100B300012884A434FF0E0235A6100229A611A4614
:100B4000126942F001021A6100BF4FF0E022106901
:100B500000F001021AB100F48032002AF5D04FF003
:100B6000E022126922F001024FF0E0231A61002214
:100B70009A6170471600002000BF054A128802F0F3
:100B80004002002AF9D0C2B2014B1B1D1A807047E7
:100B90000038014010B5FFF76FFCFFF74FFC10BDA8
:100BA0000024FFF7F7FF00F093F84DE02748008896
:100BB00000F40040F8B125480088C0F30D0624A0D9
:100BC000FFF726FB00250DE02748415D2748FFF78A
:100BD00082FF00BF40212548FFF7B0FE0128F9D170
:100BE000681C85B2B542EFDB21A0FFF711FB0020A6
:100BF0001649088028E0601C84B241F2883094FBDA
:100C0000F0F100FB114028B91BA0FFF701FB22A067
:100C1000FFF7FEFAC82094FBF0F100FB114010B979
:100C200023A0FFF7F5FA1E2094FBF0F100FB114022
:100C300038B92648006808B9012000E0002023499F
:100C400008600A20FFF772FFB0E700001C000020D8
:100C50000D0AC4FAB7A2CBCDB5C4CFFBCFA2CEAAA2
:100C60003A0D0A0D0A00000034000020003801404F
:100C70000D0A0D0A000000000D0ABEABD3A25354AA
:100C80004D3332BFAAB7A2B0E520B4AEBFDACAB5C1
:100C9000D1E90D0A00000000D5FDB5E3D4ADD7D3EE
:100CA00040414C49454E54454B0D0A0D0A00000089
:100CB000C7EBCAE4C8EBCAFDBEDD2CD2D4BBD8B3A7
:100CC000B5BCFCBDE1CAF80A0000000094812142D5
:100CD00010B5FFF709FF4FF4A060FFF72FFC4FF4AA
:100CE000E13000F001F810BD10B586B004460121D6
:100CF00044F20400FFF73EFC2348FFF7D1FD4FF418
:100D00000070ADF8140003208DF8160018208DF83F
:100D1000170005A91D48FFF702FB4FF48060ADF8EE
:100D2000140004208DF8170005A91848FFF7F7FAFA
:100D300025208DF8000003208DF801008DF80200B9
:100D400001208DF803006846FFF7C0FB01940020E6
:100D5000ADF80800ADF80A00ADF80C00ADF81000D1
:100D60000C20ADF80E0001A90748FFF743FE012251
:100D700040F225510448FFF718FE01210248FFF711
:100D800083FD06B010BD000000380140000801409E
:100D9000B00D000800000020340000006C010008C5
:100DA000E40D0008340000202C0700008801000832
:100DB00000A24A0400000000000000000102030439
:100DC0000607080900000000000000000000000005
:100DD00000000102030401020304060708090204DB
:040DE0000608000001
:0400000508000131BD
:00000001FF
